:100000000C9464000C94F1030C94F1030C94F10330
:100010000C94F1030C94F1030C94F1030C94F10390
:100020000C94F1030C94F1030C94F1030C94F10380
:100030000C94F1030C94F1030C94F1030C94F10370
:100040000C94F1030C9462020C94F1030C94F103F0
:100050000C94F1030C94F1030C94F1030C94F10350
:100060000C94F1030C94F1030C94F1030C94F10340
:100070000C94F1030C94F1030C94F1030C94F10330
:100080000C94F1030C94F1030C94F1030C94F10320
:100090000C94F1030C94EB010C9414020C94F103F6
:1000A0000C94F1030C94F1030C94F1030C94F10300
:1000B000700070240007FE70247058807058705CC7
:1000C000000822705C70628011241FBECFEFCDBF8C
:1000D000DFE7DEBFE0EBF0E040E017C0B591A591AF
:1000E00035912591059107FD0CC095918591EF0102
:1000F000F92FE82F05900D92A217B307D9F7FE014B
:1001000004C01D92A217B307E1F7E83CF40731F7EA
:0C0110000E94BF010C948D03F894FFCFF7
:10011C00CF93DF93E4E2F0E78081877F8083848153
:10012C009581019731F4E0E0F9E084818460848367
:10013C0005C0E0E0F9E084818B7F8483E4E2F0E7A2
:10014C0084819581019784839583892BA9F0DF01A4
:10015C00C281D381E0E0F9E08085888312968D918D
:10016C009C911397019612968D939C93139784816F
:10017C008260848384E026C0A4E2B0E71296ED91FD
:10018C00FC91139780910809808312968D919C9114
:10019C001397019612968D939C9313978C91846070
:1001AC008C931C96ED91FC911D9758968D919C917A
:1001BC00599709958250823018F40E94C00302C0EE
:0A01CC000E948203DF91CF91089595
:1001D6008091050984FF19C0A4E2B0E75296ED911B
:1001E600FC9153975E968D919C915F97099582300D
:1001F60019F0833021F006C00E94EB0308950E9497
:10020600EE0308950E94AA030895A4E2B0E78C9134
:1002160084608C931C96ED91FC911D9758968D9158
:100226009C9159970995833039F0843041F082309A
:1002360049F40E94EB0308950E94EE0308950E947C
:0A024600280108950E94AA030895FC
:100250008091050984FF19C0A4E2B0E75296ED91A0
:10026000FC9153975E968D919C915F970995823092
:1002700019F0833021F006C00E94EB0308950E941C
:10028000EE0308950E94AA030895E4E2F0E7808156
:10029000877F8083A281B381CD010196828393837E
:1002A0008C9180930809848195810197848395833B
:0C02B000892B11F083E0089585E008958B
:1002BC0080E008C0E82FF0E0E05FFB4F9081986091
:1002CC0090838F5F8830B0F380E008C0E82FF0E0B7
:1002DC00E05BFB4F9081986090838F5F8830B0F328
:1002EC0080E008C0E82FF0E0E059FB4F9081986067
:1002FC0090838F5F8830B0F380E008C0E82FF0E087
:10030C00E055FB4F9081986090838F5F8830B0F3FD
:02031C00089542
:10031E00CF93DF93E0E0F9E08581806C8583809157
:10032E00247083FF07C08091050984FF03C08FE00E
:10033E0080932E708091050983FF03C080E1809326
:10034E002E708091050982FF03C081E180932E708B
:10035E00C4E2D0E7EA85F0E0EE0FFF1FE050F0496F
:10036E000190F081E02D09958A87DF91CF91089554
:10037E000E94E50380B1806180B90E9498030E94BB
:10038E00D5030E94DB0381E60E94CE0381B180611A
:10039E0081B92FE78AE196E0215080409040E1F745
:1003AE0000C0000082E60E94FB030E94CE0381B1D2
:1003BE008F7E81B92FE78AE196E0215080409040F0
:0803CE00E1F700C00000DFCFE1
:1003D6001F920F920FB60F9211242F933F934F93B4
:1003E6005F936F937F938F939F93AF93BF93EF9397
:1003F600FF93E0915A70F0915B70309709F0099580
:10040600FF91EF91BF91AF919F918F917F916F91E6
:100416005F914F913F912F910F900FBE0F901F90BC
:02042600189527
:100428001F920F920FB60F9211242F933F934F9361
:100438005F936F937F938F939F93AF93BF93EF9344
:10044800FF93E0915870F0915970309709F0099531
:10045800FF91EF91BF91AF919F918F917F916F9194
:100468005F914F913F912F910F900FBE0F901F906A
:020478001895D5
:10047A0081B1877F81B980B1886080B9E3E1F4E016
:10048A008081877F808380818F7780838081887F46
:10049A00808381B18B7F81B980B1846080B9E2E1C8
:1004AA00F4E08081877F808380818F778083808159
:0A04BA00887F80830E94C703089525
:1004C4001F920F920FB60F9211242F933F934F93C5
:1004D4005F936F937F938F939F93AF93BF93EF93A8
:1004E400FF930E948F01FF91EF91BF91AF919F9174
:1004F4008F917F916F915F914F913F912F910F90C9
:080504000FBE0F901F90189527
:10050C00E0E0F9E0858188608583A4E2B0E782E0D1
:10051C001B968C931B971E96ED91FC911F975A96E8
:10052C008D919C915B970995823019F0833021F065
:10053C0006C00E94EB0308950E94EE0308950E94EA
:04054C0059030895B2
:10055000A4E2B0E78C91877F8C9382E01B968C930A
:100560001B975096ED91FC9151975C968D919C91C3
:100570005D970995823019F0833021F006C00E9402
:10058000EB0308950E94EE0308950E94AA030895C4
:1005900080915C70882389F0E0915D70EF5FE77077
:1005A000E0935D70F0E0E85BFF4880818093420853
:1005B00080915C70815080935C7080915C7081113F
:0E05C00005C0E0E4F8E085818F7D8583089515
:1005CE00E0E4F8E08BE09AE18087918780E885830C
:1005DE0080EC8683109260701092617010925F7042
:1005EE0010925D7010925E7010925C7080E00895B3
:1005FE0090914008E0916170EF5FE77080916070BC
:10060E00E81759F0E0936170F0E0E05BFF489083EB
:0C061E0080915F708F5F80935F70089583
:10062A0088B18D7F88B9E1E5F4E08081877F808396
:10063A0089B18E7F89B988B1816088B90E9498038F
:02064A00089511
:10064C0084B38D7F84BBE1EBF4E08081877F808372
:10065C0085B38E7F85BB84B3816084BB0E94E70227
:02066C000895EF
:10066E000E945E010E94F3030E9415030E9426035E
:10067E000E94F7030E94F5030E943D020E94E103CF
:02068E000895CD
:10069000E0E0F9E0848188608483858181608583DE
:1006A000E4E2F0E780818E7F808382E083878EE0C2
:0206B0000895AB
:1006B200E0E0F9E0848188608483858181608583BC
:1006C200E4E2F0E780818E7F808313868EE00895D6
:1006D200E4E2F0E7808188608083818190E0880F86
:0C06E200991F81608093070984E008954F
:1006EE00E4E2F0E78081886080838181880F8093C7
:0606FE00070983E00895E6
:10070400E0E0F9E08481846084838481836084836D
:060714000E94A2030895FB
:10071A00EC010E94FD030E94FC03CE010E94FE032D
:06072A00CE010E94F9035C
:10073000E0E2F8E08BE09AE18087918780EC8683A5
:0407400080E00895B8
:10074400E4E2F0E780818E7F8083138680E0089561
:10075400E0E0F9E08481836084830E94A203089529
:0E076400E0E0F9E084818B7F848384E00895D7
:0E077200E0E0F9E084818B7F848383E00895CA
:0E078000E0E0F9E084818460848388E00895DD
:0E078E00E0E0F9E08FE0868381EC838308953C
:0E079C009091240895FFFCCF809322080895C9
:0C07AA00E0E2F8E08681806C8683089510
:0C07B600E0E2F8E086818064868308950C
:0807C2001092890080E0089507
:0607CA000E9437030895B0
:0607D0000E946903089578
:0607D6000E946903089572
:0607DC000E94770308955E
:0407E2000C94000073
:0407E60080E0089512
:0407EA0080E008950E
:0407EE0080E008950A
:0407F2000E948C00D5
:0207F600089564
:0207F800089562
:0207FA00089560
:0207FC0008955E
:1007FE00A2036903770328018E00EB00EB03EE03DF
:10080E00E803AA03B203B9038203C0035903A80283
:04081E008602480303
:02082200C8020A
:02082400FF02D1
:00000001FF
