:100000000C9458000C9475000C9475000C94AB0380
:100010000C9475000C9475000C9475000C9475008C
:100020000C9475000C9475000C9475000C9475007C
:100030000C9475000C9475000C9475000C9475006C
:100040000C9475000C94E4020C9475000C947500EB
:100050000C9475000C9475000C9475000C9475004C
:100060000C9475000C9475000C9475000C9475003C
:100070000C9475000C9475000C9475000C9475002C
:100080000C9475000C9475000C9475000C9475001C
:100090000C9475000C9475000C9475000C9475000C
:1000A0000C9475000C9475000C9475000C947500FC
:1000B00011241FBECFEFCDBFDFE7DEBF10E7A0E00A
:1000C000B0E7E6E5F8E002C005900D92AE32B10768
:1000D000D9F720E7AEE2B0E701C01D92A936B2071A
:1000E000E1F70E947A000C9429040C9400000E940D
:1000F000FD0008950E947700FFCF1092890080E0F4
:10010000089580E0089580E0089580E008C0E82F19
:10011000F0E0E05FFB4F9081986090838F5F8830C4
:10012000B0F380E008C0E82FF0E0E05BFB4F908187
:10013000986090838F5F8830B0F380E008C0E82F2C
:10014000F0E0E059FB4F9081986090838F5F88309A
:10015000B0F380E008C0E82FF0E0E055FB4F90815D
:10016000986090838F5F8830B0F3089588B18D7F59
:1001700088B9E1E5F4E08081877F808389B18E7F53
:1001800089B988B1816088B90E941504089584B343
:100190008D7F84BBE1EBF4E08081877F808385B332
:1001A0008E7F85BB84B3816084BB0E941F04089549
:1001B00081B1877F81B980B1886080B9E3E1F4E0E3
:1001C0008081877F808380818F7780838081887F13
:1001D000808381B18B7F81B980B1846080B9E2E195
:1001E000F4E08081877F808380818F778083808126
:1001F000887F80830E94DD0208950E94850081B17E
:100200008F7E81B980B1806180B989B18B7F89B9D6
:1002100088B1846088B989B1877F89B988B18860DD
:1002200088B98DB18E7F8DB98CB181608CB90E94F7
:1002300081000E94B6000E94C7000E9408030E942D
:1002400083000E94D8000E940E030E947D00089542
:10025000E0E0F9E084818860848385818160858322
:10026000EEE2F0E780818E7F808313868EE0089532
:10027000EEE2F0E780818E7F8083138680E0089530
:10028000E0E0F9E08481836084830E94380108956E
:10029000EEE2F0E7808188608083818190E0880FC2
:1002A000991F81608093070984E008950E944801A6
:1002B00008950E9448010895EEE2F0E78081886089
:1002C00080838181880F8093070983E008950E94CD
:1002D0005C010895AEE2B0E78C91877F8C9382E059
:1002E0001B968C931B975096ED91FC9151975C96C1
:1002F0008D919C915D970995823019F0833021F0A2
:1003000006C00E94590108950E94670108950E9445
:1003100040010895E0E0F9E084818B7F848384E0EC
:100320000895E0E0F9E084818B7F848383E0089581
:10033000E0E0F9E084818460848384818360848345
:100340000E9438010895E0E0F9E0848184608483AC
:1003500088E008958091050984FF19C0AEE2B0E7F6
:100360005296ED91FC9153975E968D919C915F977B
:100370000995823019F0833021F006C00E9459019E
:1003800008950E94670108950E9440010895EEE2D9
:10039000F0E78081877F8083A281B381CD010196C0
:1003A000828393838C91809308098481958101973E
:1003B00084839583892B11F083E0089585E0089567
:1003C000CF93DF93EEE2F0E78081877F80838481A3
:1003D0009581019731F4E0E0F9E0848184608483C1
:1003E00005C0E0E0F9E084818B7F8483EEE2F0E7F2
:1003F00084819581019784839583892BA9F0DF01FE
:10040000C281D381E0E0F9E08085888312968D91E6
:100410009C911397019612968D939C9313978481C8
:100420008260848384E026C0AEE2B0E71296ED914C
:10043000FC91139780910809808312968D919C916D
:100440001397019612968D939C9313978C918460C9
:100450008C931C96ED91FC911D9758968D919C91D3
:10046000599709958250823018F40E94A30102C066
:100470000E949801DF91CF9108958091050984FF32
:1004800019C0AEE2B0E75296ED91FC9153975E969B
:100490008D919C915F970995823019F0833021F0FE
:1004A00006C00E94590108950E94670108950E94A4
:1004B00040010895AEE2B0E78C9184608C931C9665
:1004C000ED91FC911D9758968D919C9159970995A6
:1004D000833039F0843041F0823049F40E94590170
:1004E00008950E94670108950E94AA0108950E943C
:1004F00040010895E0E0F9E0858188608583AEE2FF
:10050000B0E782E01B968C931B971E96ED91FC91B1
:100510001F975A968D919C915B970995823019F09F
:10052000833021F006C00E94590108950E9467019E
:1005300008950E9428010895E0E0F9E08481886030
:100540008483858181608583EEE2F0E780818E7F00
:10055000808382E083878EE00895CF93DF93E0E08D
:10056000F9E08581806C858380912E7083FF07C0C0
:100570008091050984FF03C08FE0809338708091DB
:10058000050983FF03C080E18093387080910509DD
:1005900082FF03C081E180933870CEE2D0E7EA8524
:1005A000F0E0EE0FFF1FE050F0490190F081E02DE8
:1005B00009958A87DF91CF910895E0E0F9E08FE017
:1005C000868381EC838308951F920F920FB60F925A
:1005D00011242F933F934F935F936F937F938F9348
:1005E0009F93AF93BF93EF93FF930E94AD02FF9150
:1005F000EF91BF91AF919F918F917F916F915F919B
:100600004F913F912F910F900FBE0F901F90189513
:1006100080E0089560E070E0CB0108958091410191
:100620008111FCCFE0E4F1E081E0808317828283D6
:100630000895E0E4F1E082818E7F8283109257700A
:10064000109258701092597010925A701092537004
:100650001092547010925570109256701092527001
:1006600008950F931F93E0E4F1E082818E7F8283EF
:10067000E0915D70F0915E70309719F40E9419035B
:1006800067C086819781A085B18540915770509150
:1006900058706091597070915A70841B950BA60B1D
:1006A000B70B009701E0A007B10500F1409157702A
:1006B000509158706091597070915A704150510921
:1006C0006F4F7F4FAFE5B0E716964D935D936D93F7
:1006D0007C9319971496ED93FC931597A0935D70F6
:1006E000B0935E708FEF9FEFA0E0B0E04FEF5FEF51
:1006F00060E070E08A019B01081B190B2A0B3B0B81
:10070000009353701093547020935570309356702B
:100710008091410181FDFCCFE0E4F1E0108611867B
:1007200081E083838091410181FDFCCF80915370F2
:1007300090915470A0915570B0915670E0E4F1E042
:100740008087918782818160828381E0809352706B
:100750001F910F9108951F920F920FB60F921124BF
:100760002F933F934F935F936F937F938F939F93B9
:10077000AF93BF93EF93FF93A0915D70B0915E70C4
:1007800014962D913C91159716964D915D916D9112
:100790007C9119974093577050935870609359709B
:1007A00070935A701092537010925470109255704A
:1007B0001092567080E7AF35B80711F4A4E2B0E7A5
:1007C00014961D921C92159780915B7090915C70AD
:1007D000892B29F4A0935B70B0935C700CC0E091FE
:1007E0005B70F0915C7001C0FC0184819581009781
:1007F000D9F7A483B58320935D7030935E700E9417
:10080000310381E080934301FF91EF91BF91AF915C
:100810009F918F917F916F915F914F913F912F9118
:100820000F900FBE0F901F901895E0E2F8E08BE05C
:100830009AE18087918780EC868380E00895E0E4E8
:10084000F8E083E896E08087918780EC868380E0FB
:060850000895F894FFCFAB
:10085600380148015C01AA01E0013D025901670126
:10086600560140018A0191019801A30128016A01FC
:0E0876007A029C020A0300000000000000004D
:00000001FF
