:100000005DC000004FC100004DC100004BC10000A9
:1000100049C1000047C1000045C1000043C10000C4
:1000200041C100003FC100003DC100003BC10000D4
:1000300039C1000037C1000035C1000033C10000E4
:1000400031C1000069C300002DC100002BC10000B8
:1000500029C1000027C1000025C1000023C1000004
:1000600021C100001FC100001DC100001BC1000014
:1000700019C1000017C1000015C1000013C1000024
:1000800011C100000FC100000DC100000BC1000034
:1000900009C1000099C30000C0C3000003C10000F3
:1000A00001C10000FFC00000FDC00000FBC0000057
:1000B0007000702800086C702870628011241FBEC8
:1000C000CFEFCDBFDFE7DEBFE0EBF0E040E017C0F1
:1000D000B591A59135912591059107FD0CC095919C
:1000E0008591EF01F92FE82F05900D92A217B30724
:1000F000D9F7FE0104C01D92A217B307E1F7EC3B4C
:0C010000F40731F70AD002C0F894FFCFDA
:0E010C00EC0127D023D0CE0122D0CE0121D08D
:10011A0040D0049A33D026D02BD081E61CD00C9A3A
:10012A002FE78AE196E0215080409040E1F700C035
:10013A00000082E62DD00FD00C982FE78AE196E0D6
:0E014A00215080409040E1F700C00000E6CF59
:02015800089508
:02015A00089506
:02015C00D5DFED
:02015E00089502
:0E0160009091240895FFFCCF8093220808950B
:0C016E00E0E2F8E08681806C8683089552
:0C017A00E0E2F8E086818064868308954E
:10018600E0E2F8E08BE09AE18087918780EC868355
:0401960080E0089568
:02019A000895C6
:02019C0000C0A1
:10019E003ED006D007D00FD017D018D019D033C00C
:0401AE0080E0089550
:1001B2004198E1E5F4E08081877F80834898409A06
:0201C200E1CF8B
:1001C400A198E1EBF4E08081877F8083A898A09ACE
:0201D40048C021
:0401D60080E0089528
:0401DA0080E0089524
:1001DE000B98039AE3E1F4E08081877F808380812E
:1001EE008F7780838081887F80830A98029AE2E1EC
:1001FE00F4E08081877F808380818F778083808108
:06020E00887F808341C0DF
:080214001092890080E00895BA
:10021C00E0E1F4E0808188608193E83184E0F807C4
:10022C00C9F7E0E5F4E0808188608193E83584E0EB
:10023C00F807C9F7E0E7F4E0808188608193E8373C
:10024C0084E0F807C9F7E0EBF4E0808188608193E3
:0A025C00E83B84E0F807C9F70895B5
:10026600E0E4F8E08BE09AE18087918780E8858377
:1002760080EC8683109258701092597010925770C5
:1002860010924D7010924E7010924C7080E008954E
:0E029600E0E0F9E08FE0868381EC8383089539
:0202A400ADCEDD
:1002A600E0E0F9E0848188608483858181608583CC
:1002B600E8E2F0E780818E7F808313868EE00895E2
:1002C600E8E2F0E780818E7F8083138680E00895E0
:1002D600E0E0F9E0848183608483E8E2F0E78081EE
:0A02E6008E7F8083138680E0089568
:1002F000E8E2F0E78081886080838181880F8160F7
:080300008093070984E00895D1
:02030800F3CF31
:02030A00F2CF30
:10030C00E8E2F0E78081886080838181880F8093A8
:06031C00070983E00895CB
:02032200F4CF16
:0E032400E0E0F9E084818B7F848384E008951B
:0E033200E0E0F9E084818B7F848383E008950E
:10034000E0E0F9E084818460848384818360848335
:10035000E8E2F0E780818E7F8083138680E0089555
:0E036000E0E0F9E084818460848388E0089501
:10036E00E0E0F9E084818860848385818160858303
:10037E00E8E2F0E780818E7F808382E083878EE0E3
:02038E000895D0
:1003900080910509806C809305098091287083FF06
:1003A00004C08091050984FD1BC08091050983FF6D
:1003B00003C080E1809332708091050982FF14C0F0
:1003C00081E180933270E1E1F0E0EE0FFF1FE05039
:1003D000F0490190F081E02D0995809332700895E5
:1003E0008FE080933270E1CFE0913270F0E0EDCF9A
:1003F00080912870877F8093287082E0809333708B
:10040000E0913870F091397080914470909145700E
:1004100009958230E1F0833061F480912870886022
:100420008093287080912970880F8093070983E05A
:100430000895809104098360809304098091287055
:100440008E7F809328701092337080E008958091A1
:10045000287088608093287080912970880F81604F
:080460008093070984E0089570
:100468008091050984FD21C080912870877F809341
:100478002870E0912A70F0912B70CF01019680933B
:100488002A7090932B7080818093080980912C703A
:1004980090912D70019780932C7090932D70892BDB
:1004A80011F083E0089585E00895E0913A70F091A5
:1004B8003B7080914670909147700995823071F039
:1004C8008330C9F480912870886080932870809167
:1004D8002970880F8093070983E008958091287018
:1004E80088608093287080912970880F816080933C
:1004F800070984E0089580910409836080930409C2
:10050800809128708E7F809328701092337080E0DD
:02051800089544
:10051A0080912870877F8093287080912C709091A9
:10052A002D708130910509F1209104092B7F2093C8
:10053A000409019780932C7090932D70E0912A7092
:10054A00F0912B7080910809808380912A70909194
:10055A002B70019680932A7090932B7080910409D6
:10056A0082608093040984E008958091040984607C
:10057A008093040910922C7010922D70E0912A70C9
:10058A00F0912B7080910809808380912A70909154
:10059A002B70019680932A7090932B70809128700B
:1005AA00846080932870E0913470F0913570809166
:1005BA0040709091417009958250823038F4809150
:1005CA00040984608093040988E0089580910409ED
:1005DA0084608093040980910409836080930409EC
:1005EA00809128708E7F809328701092337080E0FB
:0205FA00089562
:1005FC008091050984FF19C0E0913A70F0913B702D
:10060C0080914670909147700995823081F18330CA
:10061C0001F58091287088608093287080912970F2
:10062C00880F8093070983E0089580912870846077
:10063C0080932870E0913470F09135708091407007
:10064C00909141700995833021F38430E9F0823028
:10065C0071F0809104098360809304098091287063
:10066C008E7F809328701092337080E00895809173
:10067C00287088608093287080912970880F816021
:0A068C008093070984E00895E9CE89
:100696008091050988608093050982E08093337014
:1006A600E0913670F091377080914270909143706E
:1006B6000995823009F1833061F480912870886051
:1006C6008093287080912970880F8093070983E0B2
:1006D6000895809104098860809304098091050932
:1006E600816080930509809128708E7F80932870A1
:1006F600109233708EE00895809128708860809300
:10070600287080912970880F81608093070984E0A2
:02071600089544
:100718001F920F920FB60F9211242F933F934F936E
:100728005F936F937F938F939F93AF93BF93EF9351
:10073800FF932ADEFF91EF91BF91AF919F918F9127
:100748007F916F915F914F913F912F910F900FBEC5
:060758000F901F901895A0
:10075E0090914008E0915970EF5FE770809158706A
:10076E00E81759F0E0935970F0E0E65AFF4890838D
:0C077E00809157708F5F80935770089532
:10078A0080914C70882389F0E0914D70EF5FE7709B
:10079A00E0934D70F0E0E15BFF488081809342086E
:1007AA0080914C70815080934C7080914C70811173
:0E07BA0005C0809145088F7D80934508089505
:1007C8001F920F920FB60F9211242F933F934F93BE
:1007D8005F936F937F938F939F93AF93BF93EF93A1
:1007E800FF93E0912670F0912770309709F00995F2
:1007F800FF91EF91BF91AF919F918F917F916F91F1
:100808005F914F913F912F910F900FBE0F901F90C6
:02081800189531
:10081A001F920F920FB60F9211242F933F934F936B
:10082A005F936F937F938F939F93AF93BF93EF934E
:10083A00FF93E0912470F0912570309709F00995A3
:10084A00FF91EF91BF91AF919F918F917F916F919E
:10085A005F914F913F912F910F900FBE0F901F9074
:02086A001895DF
:10086C0063017801860134028D02FE02850191013B
:10087C0084016B0192019901A001B0015301F801AF
:04088C004B03B70162
:02089000C5039E
:02089200AF03B2
:00000001FF
